{
  "contractName": "Pausable",
  "abi": [
    {
      "inputs": [],
      "name": "owner",
      "outputs": [
        {
          "internalType": "address",
          "name": "",
          "type": "address"
        }
      ],
      "stateMutability": "view",
      "type": "function"
    },
    {
      "inputs": [],
      "name": "paused",
      "outputs": [
        {
          "internalType": "bool",
          "name": "",
          "type": "bool"
        }
      ],
      "stateMutability": "view",
      "type": "function"
    },
    {
      "inputs": [],
      "name": "pause",
      "outputs": [],
      "stateMutability": "nonpayable",
      "type": "function"
    },
    {
      "inputs": [],
      "name": "unpause",
      "outputs": [],
      "stateMutability": "nonpayable",
      "type": "function"
    }
  ],
  "bytecode": "0x608060405260008060146101000a81548160ff021916908315150217905550336000806101000a81548173ffffffffffffffffffffffffffffffffffffffff021916908373ffffffffffffffffffffffffffffffffffffffff16021790555061025d8061006d6000396000f3fe608060405234801561001057600080fd5b506004361061004c5760003560e01c80633f4ba83a146100515780635c975abb1461005b5780638456cb591461007d5780638da5cb5b14610087575b600080fd5b6100596100d1565b005b61006361015f565b604051808215151515815260200191505060405180910390f35b610085610172565b005b61008f610202565b604051808273ffffffffffffffffffffffffffffffffffffffff1673ffffffffffffffffffffffffffffffffffffffff16815260200191505060405180910390f35b6000809054906101000a900473ffffffffffffffffffffffffffffffffffffffff1673ffffffffffffffffffffffffffffffffffffffff163373ffffffffffffffffffffffffffffffffffffffff161461012a57600080fd5b600060149054906101000a900460ff1661014357600080fd5b60008060146101000a81548160ff021916908315150217905550565b600060149054906101000a900460ff1681565b6000809054906101000a900473ffffffffffffffffffffffffffffffffffffffff1673ffffffffffffffffffffffffffffffffffffffff163373ffffffffffffffffffffffffffffffffffffffff16146101cb57600080fd5b600060149054906101000a900460ff16156101e557600080fd5b6001600060146101000a81548160ff021916908315150217905550565b6000809054906101000a900473ffffffffffffffffffffffffffffffffffffffff168156fea2646970667358221220c374f56d82d3fd1d8751a2f30512328e18e259d6b838017e2e6c85ed63936f3f64736f6c63430006060033",
  "immutableReferences": {},
  "source": "// SPDX-License-Identifier: MIT\r\npragma solidity >=0.5.0 <0.7.0;\r\n\r\nimport \"./Ownable.sol\";\r\n\r\ncontract Pausable is Ownable {\r\n\r\n\tbool public paused = false;\r\n\r\n\tmodifier whenNotPaused() { \r\n\t\trequire (!paused); \r\n\t\t_; \r\n\t}\r\n\r\n\tmodifier whenPaused() { \r\n\t\trequire (paused); \r\n\t\t_; \r\n\t}\r\n\t\r\n\tfunction pause () public onlyOwner whenNotPaused {\r\n\t\tpaused = true;\r\n\t}\r\n\r\n\tfunction unpause () public onlyOwner whenPaused {\r\n\t\tpaused = false;\r\n\t}\r\n\t\r\n\r\n}",
  "sourcePath": "D:\\Ethereum\\Projects\\crowdsale\\contracts\\Pausable.sol",
  "compiler": {
    "name": "solc",
    "version": "0.6.6+commit.6c089d02.Emscripten.clang"
  },
  "schemaVersion": "3.2.1",
  "updatedAt": "2020-07-09T07:23:14.381Z",
  "devdoc": {
    "methods": {}
  },
  "userdoc": {
    "methods": {}
  }
}