{
  "contractName": "TranchePricingCrowdsale",
  "abi": [
    {
      "inputs": [
        {
          "internalType": "uint256",
          "name": "_startTime",
          "type": "uint256"
        },
        {
          "internalType": "uint256",
          "name": "_endTime",
          "type": "uint256"
        },
        {
          "internalType": "uint256",
          "name": "_etherInvestmentObjective",
          "type": "uint256"
        }
      ],
      "stateMutability": "payable",
      "type": "constructor"
    },
    {
      "anonymous": false,
      "inputs": [
        {
          "indexed": true,
          "internalType": "address",
          "name": "investor",
          "type": "address"
        },
        {
          "indexed": false,
          "internalType": "uint256",
          "name": "value",
          "type": "uint256"
        }
      ],
      "name": "LogInvestment",
      "type": "event"
    },
    {
      "anonymous": false,
      "inputs": [
        {
          "indexed": true,
          "internalType": "address",
          "name": "investor",
          "type": "address"
        },
        {
          "indexed": false,
          "internalType": "uint256",
          "name": "numTokens",
          "type": "uint256"
        }
      ],
      "name": "LogTokenAssignment",
      "type": "event"
    },
    {
      "anonymous": false,
      "inputs": [
        {
          "indexed": false,
          "internalType": "address",
          "name": "investor",
          "type": "address"
        },
        {
          "indexed": false,
          "internalType": "uint256",
          "name": "value",
          "type": "uint256"
        }
      ],
      "name": "Refund",
      "type": "event"
    },
    {
      "inputs": [],
      "name": "crowdsaleToken",
      "outputs": [
        {
          "internalType": "contract ReleasableSimpleCoin",
          "name": "",
          "type": "address"
        }
      ],
      "stateMutability": "view",
      "type": "function"
    },
    {
      "inputs": [
        {
          "internalType": "address payable",
          "name": "_recipient",
          "type": "address"
        }
      ],
      "name": "destroyAndSend",
      "outputs": [],
      "stateMutability": "nonpayable",
      "type": "function"
    },
    {
      "inputs": [],
      "name": "endTime",
      "outputs": [
        {
          "internalType": "uint256",
          "name": "",
          "type": "uint256"
        }
      ],
      "stateMutability": "view",
      "type": "function"
    },
    {
      "inputs": [],
      "name": "finalize",
      "outputs": [],
      "stateMutability": "nonpayable",
      "type": "function"
    },
    {
      "inputs": [],
      "name": "invest",
      "outputs": [],
      "stateMutability": "payable",
      "type": "function"
    },
    {
      "inputs": [
        {
          "internalType": "address",
          "name": "",
          "type": "address"
        }
      ],
      "name": "investmentAmountOf",
      "outputs": [
        {
          "internalType": "uint256",
          "name": "",
          "type": "uint256"
        }
      ],
      "stateMutability": "view",
      "type": "function"
    },
    {
      "inputs": [],
      "name": "investmentReceived",
      "outputs": [
        {
          "internalType": "uint256",
          "name": "",
          "type": "uint256"
        }
      ],
      "stateMutability": "view",
      "type": "function"
    },
    {
      "inputs": [],
      "name": "investmentRefunded",
      "outputs": [
        {
          "internalType": "uint256",
          "name": "",
          "type": "uint256"
        }
      ],
      "stateMutability": "view",
      "type": "function"
    },
    {
      "inputs": [],
      "name": "isFinalized",
      "outputs": [
        {
          "internalType": "bool",
          "name": "",
          "type": "bool"
        }
      ],
      "stateMutability": "view",
      "type": "function"
    },
    {
      "inputs": [],
      "name": "isRefundingAllowed",
      "outputs": [
        {
          "internalType": "bool",
          "name": "",
          "type": "bool"
        }
      ],
      "stateMutability": "view",
      "type": "function"
    },
    {
      "inputs": [],
      "name": "owner",
      "outputs": [
        {
          "internalType": "address",
          "name": "",
          "type": "address"
        }
      ],
      "stateMutability": "view",
      "type": "function"
    },
    {
      "inputs": [],
      "name": "pause",
      "outputs": [],
      "stateMutability": "nonpayable",
      "type": "function"
    },
    {
      "inputs": [],
      "name": "paused",
      "outputs": [
        {
          "internalType": "bool",
          "name": "",
          "type": "bool"
        }
      ],
      "stateMutability": "view",
      "type": "function"
    },
    {
      "inputs": [],
      "name": "refund",
      "outputs": [],
      "stateMutability": "nonpayable",
      "type": "function"
    },
    {
      "inputs": [],
      "name": "startTime",
      "outputs": [
        {
          "internalType": "uint256",
          "name": "",
          "type": "uint256"
        }
      ],
      "stateMutability": "view",
      "type": "function"
    },
    {
      "inputs": [],
      "name": "trancheCurrentLevel",
      "outputs": [
        {
          "internalType": "uint256",
          "name": "",
          "type": "uint256"
        }
      ],
      "stateMutability": "view",
      "type": "function"
    },
    {
      "inputs": [
        {
          "internalType": "uint256",
          "name": "",
          "type": "uint256"
        }
      ],
      "name": "trancheStructure",
      "outputs": [
        {
          "internalType": "uint256",
          "name": "weiHighLimit",
          "type": "uint256"
        },
        {
          "internalType": "uint256",
          "name": "weiTokenPrice",
          "type": "uint256"
        }
      ],
      "stateMutability": "view",
      "type": "function"
    },
    {
      "inputs": [],
      "name": "unpause",
      "outputs": [],
      "stateMutability": "nonpayable",
      "type": "function"
    },
    {
      "inputs": [],
      "name": "weiInvestmentObjective",
      "outputs": [
        {
          "internalType": "uint256",
          "name": "",
          "type": "uint256"
        }
      ],
      "stateMutability": "view",
      "type": "function"
    },
    {
      "inputs": [],
      "name": "weiTokenPrice",
      "outputs": [
        {
          "internalType": "uint256",
          "name": "",
          "type": "uint256"
        }
      ],
      "stateMutability": "view",
      "type": "function"
    }
  ],
  "bytecode": "0x608060405260008060146101000a81548160ff02191690831515021790555060405161255c38038061255c8339818101604052606081101561004057600080fd5b810190808051906020019092919080519060200190929190805190602001909291905050508282600083336000806101000a81548173ffffffffffffffffffffffffffffffffffffffff021916908373ffffffffffffffffffffffffffffffffffffffff160217905550428410156100fb576040517f08c379a0000000000000000000000000000000000000000000000000000000008152600401808060200182810382526000815260200160200191505060405180910390fd5b8383101561014c576040517f08c379a0000000000000000000000000000000000000000000000000000000008152600401808060200182810382526000815260200160200191505060405180910390fd5b600082141561019e576040517f08c379a0000000000000000000000000000000000000000000000000000000008152600401808060200182810382526000815260200160200191505060405180910390fd5b60008114156101f0576040517f08c379a0000000000000000000000000000000000000000000000000000000008152600401808060200182810382526000815260200160200191505060405180910390fd5b836001819055508260028190555081600381905550670de0b6b3a76400008102600481905550600060405161022490610454565b80828152602001915050604051809103906000f08015801561024a573d6000803e3d6000fd5b50600860026101000a81548173ffffffffffffffffffffffffffffffffffffffff021916908373ffffffffffffffffffffffffffffffffffffffff1602179055506000600860006101000a81548160ff0219169083151502179055506000600860016101000a81548160ff021916908315150217905550336000806101000a81548173ffffffffffffffffffffffffffffffffffffffff021916908373ffffffffffffffffffffffffffffffffffffffff16021790555050505050604051806040016040528068015af1d78b58c40000815260200166071afd498d000081525060096000808152602001908152602001600020600082015181600001556020820151816001015590505060405180604001604052806802b5e3af16b18800008152602001660aa87bee538000815250600960006001815260200190815260200160002060008201518160000155602082015181600101559050506040518060400160405280680410d586a20a4c00008152602001660e35fa931a000081525060096000600281526020019081526020016000206000820151816000015560208201518160010155905050604051806040016040528068056bc75e2d6310000081526020016611c37937e08000815250600960006003815260200190815260200160002060008201518160000155602082015181600101559050506000600a81905550505050610461565b6114148061114883390190565b610cd8806104706000396000f3fe60806040526004361061011f5760003560e01c80638da5cb5b116100a0578063e8b5e51f11610064578063e8b5e51f146103f6578063ee56cf4114610400578063f5074f411461042b578063f832d40e1461047c578063fa65dfac146104a75761011f565b80638da5cb5b1461028a578063912e704e146102e1578063bab34f4314610346578063cb6f16d414610371578063e404d2d4146103a05761011f565b8063590e1ae3116100e7578063590e1ae3146101d35780635c975abb146101ea57806378e97925146102195780638456cb59146102445780638d4e40831461025b5761011f565b80631c0a5c10146101245780633197cbb61461014f57806338ef93801461017a5780633f4ba83a146101a55780634bb278f3146101bc575b600080fd5b34801561013057600080fd5b506101396104fe565b6040518082815260200191505060405180910390f35b34801561015b57600080fd5b50610164610504565b6040518082815260200191505060405180910390f35b34801561018657600080fd5b5061018f61050a565b6040518082815260200191505060405180910390f35b3480156101b157600080fd5b506101ba610510565b005b3480156101c857600080fd5b506101d161059e565b005b3480156101df57600080fd5b506101e86106f5565b005b3480156101f657600080fd5b506101ff610870565b604051808215151515815260200191505060405180910390f35b34801561022557600080fd5b5061022e610883565b6040518082815260200191505060405180910390f35b34801561025057600080fd5b50610259610889565b005b34801561026757600080fd5b50610270610919565b604051808215151515815260200191505060405180910390f35b34801561029657600080fd5b5061029f61092c565b604051808273ffffffffffffffffffffffffffffffffffffffff1673ffffffffffffffffffffffffffffffffffffffff16815260200191505060405180910390f35b3480156102ed57600080fd5b506103306004803603602081101561030457600080fd5b81019080803573ffffffffffffffffffffffffffffffffffffffff169060200190929190505050610951565b6040518082815260200191505060405180910390f35b34801561035257600080fd5b5061035b610969565b6040518082815260200191505060405180910390f35b34801561037d57600080fd5b5061038661096f565b604051808215151515815260200191505060405180910390f35b3480156103ac57600080fd5b506103d9600480360360208110156103c357600080fd5b8101908080359060200190929190505050610982565b604051808381526020018281526020019250505060405180910390f35b6103fe6109a6565b005b34801561040c57600080fd5b50610415610a7b565b6040518082815260200191505060405180910390f35b34801561043757600080fd5b5061047a6004803603602081101561044e57600080fd5b81019080803573ffffffffffffffffffffffffffffffffffffffff169060200190929190505050610a81565b005b34801561048857600080fd5b50610491610af3565b6040518082815260200191505060405180910390f35b3480156104b357600080fd5b506104bc610af9565b604051808273ffffffffffffffffffffffffffffffffffffffff1673ffffffffffffffffffffffffffffffffffffffff16815260200191505060405180910390f35b60065481565b60025481565b60075481565b6000809054906101000a900473ffffffffffffffffffffffffffffffffffffffff1673ffffffffffffffffffffffffffffffffffffffff163373ffffffffffffffffffffffffffffffffffffffff161461056957600080fd5b600060149054906101000a900460ff1661058257600080fd5b60008060146101000a81548160ff021916908315150217905550565b6000809054906101000a900473ffffffffffffffffffffffffffffffffffffffff1673ffffffffffffffffffffffffffffffffffffffff163373ffffffffffffffffffffffffffffffffffffffff16146105f757600080fd5b600860009054906101000a900460ff161561061157600080fd5b60006002544211905060006004546006541015905081156106f15780156106b957600860029054906101000a900473ffffffffffffffffffffffffffffffffffffffff1673ffffffffffffffffffffffffffffffffffffffff166386d1a69f6040518163ffffffff1660e01b8152600401600060405180830381600087803b15801561069c57600080fd5b505af11580156106b0573d6000803e3d6000fd5b505050506106d5565b6001600860016101000a81548160ff0219169083151502179055505b6001600860006101000a81548160ff0219169083151502179055505b5050565b600860019054906101000a900460ff1661070e57600080fd5b60003390506000600560008373ffffffffffffffffffffffffffffffffffffffff1673ffffffffffffffffffffffffffffffffffffffff168152602001908152602001600020549050600081141561076557600080fd5b6000600560008473ffffffffffffffffffffffffffffffffffffffff1673ffffffffffffffffffffffffffffffffffffffff16815260200190815260200160002081905550806007600082825401925050819055508173ffffffffffffffffffffffffffffffffffffffff166108fc829081150290604051600060405180830381858888f19350505050158015610800573d6000803e3d6000fd5b507fbb28353e4598c3b9199101a66e0989549b659a59a54d2c27fbb183f1932c8e6d3382604051808373ffffffffffffffffffffffffffffffffffffffff1673ffffffffffffffffffffffffffffffffffffffff1681526020018281526020019250505060405180910390a15050565b600060149054906101000a900460ff1681565b60015481565b6000809054906101000a900473ffffffffffffffffffffffffffffffffffffffff1673ffffffffffffffffffffffffffffffffffffffff163373ffffffffffffffffffffffffffffffffffffffff16146108e257600080fd5b600060149054906101000a900460ff16156108fc57600080fd5b6001600060146101000a81548160ff021916908315150217905550565b600860009054906101000a900460ff1681565b6000809054906101000a900473ffffffffffffffffffffffffffffffffffffffff1681565b60056020528060005260406000206000915090505481565b60045481565b600860019054906101000a900460ff1681565b60096020528060005260406000206000915090508060000154908060010154905082565b6109af34610b1f565b6109b857600080fd5b6000339050600034905080600560008473ffffffffffffffffffffffffffffffffffffffff1673ffffffffffffffffffffffffffffffffffffffff1681526020019081526020016000206000828254019250508190555080600660008282540192505081905550610a298282610b54565b8173ffffffffffffffffffffffffffffffffffffffff167fc74590e3281392e897f5c0f45530951cfe0db0e86c76d65af861e80b925871a4826040518082815260200191505060405180910390a25050565b60035481565b6000809054906101000a900473ffffffffffffffffffffffffffffffffffffffff1673ffffffffffffffffffffffffffffffffffffffff163373ffffffffffffffffffffffffffffffffffffffff1614610ada57600080fd5b8073ffffffffffffffffffffffffffffffffffffffff16ff5b600a5481565b600860029054906101000a900473ffffffffffffffffffffffffffffffffffffffff1681565b6000806000831415905060006001544210158015610b3f57506002544211155b9050818015610b4b5750805b92505050919050565b6000610b5f82610c27565b9050600860029054906101000a900473ffffffffffffffffffffffffffffffffffffffff1673ffffffffffffffffffffffffffffffffffffffff166340c10f1984836040518363ffffffff1660e01b8152600401808373ffffffffffffffffffffffffffffffffffffffff1673ffffffffffffffffffffffffffffffffffffffff16815260200182815260200192505050600060405180830381600087803b158015610c0a57600080fd5b505af1158015610c1e573d6000803e3d6000fd5b50505050505050565b6000610c31610c44565b6003548281610c3c57fe5b049050919050565b6000600a5490505b60065460096000838152602001908152602001600020600001541015610c79578080600101915050610c4c565b80600a8190555060096000600a548152602001908152602001600020600101546003819055505056fea2646970667358221220ad717e7a49ef4b03ef64201f1c828b66e94f54d6ad09e2e7020c3d7d0424d5c764736f6c6343000606003360806040526000600460006101000a81548160ff0219169083151502179055506000600460016101000a81548160ff02191690831515021790555034801561004657600080fd5b506040516114143803806114148339818101604052602081101561006957600080fd5b810190808051906020019092919050505080336000806101000a81548173ffffffffffffffffffffffffffffffffffffffff021916908373ffffffffffffffffffffffffffffffffffffffff160217905550336000806101000a81548173ffffffffffffffffffffffffffffffffffffffff021916908373ffffffffffffffffffffffffffffffffffffffff16021790555061012c6000809054906101000a900473ffffffffffffffffffffffffffffffffffffffff168261013360201b60201c565b5050610263565b6000809054906101000a900473ffffffffffffffffffffffffffffffffffffffff1673ffffffffffffffffffffffffffffffffffffffff163373ffffffffffffffffffffffffffffffffffffffff161461018c57600080fd5b80600160008473ffffffffffffffffffffffffffffffffffffffff1673ffffffffffffffffffffffffffffffffffffffff168152602001908152602001600020600082825401925050819055508173ffffffffffffffffffffffffffffffffffffffff166000809054906101000a900473ffffffffffffffffffffffffffffffffffffffff1673ffffffffffffffffffffffffffffffffffffffff167fddf252ad1be2c89b69c2b068fc378daa952ba7f163c4a11628f55a4df523b3ef836040518082815260200191505060405180910390a35050565b6111a2806102726000396000f3fe608060405234801561001057600080fd5b50600436106100f55760003560e01c80639613252111610097578063dd62ed3e11610066578063dd62ed3e1461038a578063e724529c14610402578063f5074f4114610452578063fabde80c14610496576100f5565b80639613252114610258578063a9059cbb1461027a578063b414d4b6146102c8578063c1dbd9b214610324576100f5565b80635c975abb116100d35780635c975abb146101d85780638456cb59146101fa57806386d1a69f146102045780638da5cb5b1461020e576100f5565b806323b872dd146100fa5780633f4ba83a1461018057806340c10f191461018a575b600080fd5b6101666004803603606081101561011057600080fd5b81019080803573ffffffffffffffffffffffffffffffffffffffff169060200190929190803573ffffffffffffffffffffffffffffffffffffffff169060200190929190803590602001909291905050506104ee565b604051808215151515815260200191505060405180910390f35b61018861051c565b005b6101d6600480360360408110156101a057600080fd5b81019080803573ffffffffffffffffffffffffffffffffffffffff169060200190929190803590602001909291905050506105ab565b005b6101e06106db565b604051808215151515815260200191505060405180910390f35b6102026106ee565b005b61020c61077e565b005b6102166107f4565b604051808273ffffffffffffffffffffffffffffffffffffffff1673ffffffffffffffffffffffffffffffffffffffff16815260200191505060405180910390f35b610260610819565b604051808215151515815260200191505060405180910390f35b6102c66004803603604081101561029057600080fd5b81019080803573ffffffffffffffffffffffffffffffffffffffff1690602001909291908035906020019092919050505061082c565b005b61030a600480360360208110156102de57600080fd5b81019080803573ffffffffffffffffffffffffffffffffffffffff169060200190929190505050610853565b604051808215151515815260200191505060405180910390f35b6103706004803603604081101561033a57600080fd5b81019080803573ffffffffffffffffffffffffffffffffffffffff16906020019092919080359060200190929190505050610873565b604051808215151515815260200191505060405180910390f35b6103ec600480360360408110156103a057600080fd5b81019080803573ffffffffffffffffffffffffffffffffffffffff169060200190929190803573ffffffffffffffffffffffffffffffffffffffff169060200190929190505050610900565b6040518082815260200191505060405180910390f35b6104506004803603604081101561041857600080fd5b81019080803573ffffffffffffffffffffffffffffffffffffffff169060200190929190803515159060200190929190505050610925565b005b6104946004803603602081101561046857600080fd5b81019080803573ffffffffffffffffffffffffffffffffffffffff169060200190929190505050610a48565b005b6104d8600480360360208110156104ac57600080fd5b81019080803573ffffffffffffffffffffffffffffffffffffffff169060200190929190505050610aba565b6040518082815260200191505060405180910390f35b6000600460019054906101000a900460ff1661050957600080fd5b610514848484610ad2565b509392505050565b6000809054906101000a900473ffffffffffffffffffffffffffffffffffffffff1673ffffffffffffffffffffffffffffffffffffffff163373ffffffffffffffffffffffffffffffffffffffff161461057557600080fd5b600460009054906101000a900460ff1661058e57600080fd5b6000600460006101000a81548160ff021916908315150217905550565b6000809054906101000a900473ffffffffffffffffffffffffffffffffffffffff1673ffffffffffffffffffffffffffffffffffffffff163373ffffffffffffffffffffffffffffffffffffffff161461060457600080fd5b80600160008473ffffffffffffffffffffffffffffffffffffffff1673ffffffffffffffffffffffffffffffffffffffff168152602001908152602001600020600082825401925050819055508173ffffffffffffffffffffffffffffffffffffffff166000809054906101000a900473ffffffffffffffffffffffffffffffffffffffff1673ffffffffffffffffffffffffffffffffffffffff167fddf252ad1be2c89b69c2b068fc378daa952ba7f163c4a11628f55a4df523b3ef836040518082815260200191505060405180910390a35050565b600460009054906101000a900460ff1681565b6000809054906101000a900473ffffffffffffffffffffffffffffffffffffffff1673ffffffffffffffffffffffffffffffffffffffff163373ffffffffffffffffffffffffffffffffffffffff161461074757600080fd5b600460009054906101000a900460ff161561076157600080fd5b6001600460006101000a81548160ff021916908315150217905550565b6000809054906101000a900473ffffffffffffffffffffffffffffffffffffffff1673ffffffffffffffffffffffffffffffffffffffff163373ffffffffffffffffffffffffffffffffffffffff16146107d757600080fd5b6001600460016101000a81548160ff021916908315150217905550565b6000809054906101000a900473ffffffffffffffffffffffffffffffffffffffff1681565b600460019054906101000a900460ff1681565b600460019054906101000a900460ff1661084557600080fd5b61084f8282610eed565b5050565b60036020528060005260406000206000915054906101000a900460ff1681565b600081600260003373ffffffffffffffffffffffffffffffffffffffff1673ffffffffffffffffffffffffffffffffffffffff16815260200190815260200160002060008573ffffffffffffffffffffffffffffffffffffffff1673ffffffffffffffffffffffffffffffffffffffff168152602001908152602001600020819055506001905092915050565b6002602052816000526040600020602052806000526040600020600091509150505481565b6000809054906101000a900473ffffffffffffffffffffffffffffffffffffffff1673ffffffffffffffffffffffffffffffffffffffff163373ffffffffffffffffffffffffffffffffffffffff161461097e57600080fd5b80600360008473ffffffffffffffffffffffffffffffffffffffff1673ffffffffffffffffffffffffffffffffffffffff16815260200190815260200160002060006101000a81548160ff0219169083151502179055507f67a17b8db8ff8fa7cff69c2328bf8a35f9be2c88abeea30be900fc28eece28ed8282604051808373ffffffffffffffffffffffffffffffffffffffff1673ffffffffffffffffffffffffffffffffffffffff168152602001821515151581526020019250505060405180910390a15050565b6000809054906101000a900473ffffffffffffffffffffffffffffffffffffffff1673ffffffffffffffffffffffffffffffffffffffff163373ffffffffffffffffffffffffffffffffffffffff1614610aa157600080fd5b8073ffffffffffffffffffffffffffffffffffffffff16ff5b60016020528060005260406000206000915090505481565b60008073ffffffffffffffffffffffffffffffffffffffff168373ffffffffffffffffffffffffffffffffffffffff161415610b76576040517f08c379a00000000000000000000000000000000000000000000000000000000081526004018080602001828103825260148152602001807f456e7465722076616c696420616464726573732e00000000000000000000000081525060200191505060405180910390fd5b81600160008673ffffffffffffffffffffffffffffffffffffffff1673ffffffffffffffffffffffffffffffffffffffff168152602001908152602001600020541015610c0e576040517f08c379a00000000000000000000000000000000000000000000000000000000081526004018080602001828103825260288152602001806111226028913960400191505060405180910390fd5b60008211610c84576040517f08c379a00000000000000000000000000000000000000000000000000000000081526004018080602001828103825260138152602001807f456e7465722076616c696420616d6f756e742e0000000000000000000000000081525060200191505060405180910390fd5b600260008573ffffffffffffffffffffffffffffffffffffffff1673ffffffffffffffffffffffffffffffffffffffff16815260200190815260200160002060003373ffffffffffffffffffffffffffffffffffffffff1673ffffffffffffffffffffffffffffffffffffffff16815260200190815260200160002054821115610d59576040517f08c379a000000000000000000000000000000000000000000000000000000000815260040180806020018281038252602381526020018061114a6023913960400191505060405180910390fd5b81600160008673ffffffffffffffffffffffffffffffffffffffff1673ffffffffffffffffffffffffffffffffffffffff1681526020019081526020016000206000828254039250508190555081600160008573ffffffffffffffffffffffffffffffffffffffff1673ffffffffffffffffffffffffffffffffffffffff1681526020019081526020016000206000828254019250508190555081600260008673ffffffffffffffffffffffffffffffffffffffff1673ffffffffffffffffffffffffffffffffffffffff16815260200190815260200160002060003373ffffffffffffffffffffffffffffffffffffffff1673ffffffffffffffffffffffffffffffffffffffff168152602001908152602001600020600082825403925050819055508273ffffffffffffffffffffffffffffffffffffffff168473ffffffffffffffffffffffffffffffffffffffff167fddf252ad1be2c89b69c2b068fc378daa952ba7f163c4a11628f55a4df523b3ef846040518082815260200191505060405180910390a3600190509392505050565b80600160003373ffffffffffffffffffffffffffffffffffffffff1673ffffffffffffffffffffffffffffffffffffffff168152602001908152602001600020541015610f85576040517f08c379a00000000000000000000000000000000000000000000000000000000081526004018080602001828103825260238152602001806110ff6023913960400191505060405180910390fd5b60008111610ffb576040517f08c379a00000000000000000000000000000000000000000000000000000000081526004018080602001828103825260138152602001807f456e7465722076616c696420616d6f756e742e0000000000000000000000000081525060200191505060405180910390fd5b80600160003373ffffffffffffffffffffffffffffffffffffffff1673ffffffffffffffffffffffffffffffffffffffff1681526020019081526020016000206000828254039250508190555080600160008473ffffffffffffffffffffffffffffffffffffffff1673ffffffffffffffffffffffffffffffffffffffff168152602001908152602001600020600082825401925050819055508173ffffffffffffffffffffffffffffffffffffffff163373ffffffffffffffffffffffffffffffffffffffff167fddf252ad1be2c89b69c2b068fc378daa952ba7f163c4a11628f55a4df523b3ef836040518082815260200191505060405180910390a3505056fe596f7520646f206e6f7420686176652073756666696369656e742062616c616e63652e53656e646572206163636f756e742068617320696e73756666696369656e742062616c616e63652e417574686f72697a6564207472616e73666572206c696d69742065786365656465642ea26469706673582212203a88bc599885ef30498fb1a3c2ada7eb5b0db872719a4b8710feddbd3438354164736f6c63430006060033",
  "immutableReferences": {},
  "source": "// SPDX-License-Identifier: MIT\r\npragma solidity >=0.5.0 <0.7.0;\r\n\r\nimport \"./SimpleCrowdsale.sol\";\r\n\r\ncontract TranchePricingCrowdsale is SimpleCrowdsale {\r\n\r\n\tstruct Tranche {\r\n\t\tuint256 weiHighLimit;\r\n\t\tuint256 weiTokenPrice;\r\n\t}\r\n\r\n\tmapping (uint256 => Tranche) public trancheStructure;\r\n\tuint256 public trancheCurrentLevel;\r\n\r\n\tconstructor (uint256 _startTime, uint256 _endTime, uint256 _etherInvestmentObjective) SimpleCrowdsale (_startTime, _endTime, 0, _etherInvestmentObjective) payable public {\r\n\t\ttrancheStructure[0] = Tranche(25 ether, 0.002 ether);\r\n\t\ttrancheStructure[1] = Tranche(50 ether, 0.003 ether);\r\n\t\ttrancheStructure[2] = Tranche(75 ether, 0.004 ether);\r\n\t\ttrancheStructure[3] = Tranche(100 ether, 0.005 ether);\r\n\r\n\t\ttrancheCurrentLevel = 0;\r\n\t}\r\n\r\n\tfunction calculateNumberOfTokens (uint256 _investment) internal override virtual returns(uint256) {\r\n\t\tupdateCurrentTrancheAndPrice();\r\n\t\treturn _investment / weiTokenPrice;\r\n\t}\r\n\r\n\tfunction updateCurrentTrancheAndPrice () internal {\r\n\t\tuint256 i = trancheCurrentLevel;\r\n\r\n\t\twhile(trancheStructure[i].weiHighLimit < investmentReceived) {\r\n\t\t\ti++;\r\n\t\t}\r\n\r\n\t\ttrancheCurrentLevel = i;\r\n\t\tweiTokenPrice = trancheStructure[trancheCurrentLevel].weiTokenPrice;\r\n\t}\r\n\r\n}",
  "sourcePath": "D:\\Ethereum\\Projects\\crowdsale\\contracts\\TranchePricingCrowdsale.sol",
  "compiler": {
    "name": "solc",
    "version": "0.6.6+commit.6c089d02.Emscripten.clang"
  },
  "schemaVersion": "3.2.1",
  "updatedAt": "2020-07-09T07:23:14.402Z",
  "devdoc": {
    "methods": {}
  },
  "userdoc": {
    "methods": {}
  }
}